:020000020000FC
:100000008FE58DBF84E08EBF22272ABB8CEF81BB9A
:100010000E94EE0080E30E94E20080E30E94E20082
:1000200080E20E94E2008DE40E94E20089E40E94E6
:10003000E2008EE40E94E2008AE30E94E20080E394
:100040000E94E20080E30E94E20080E20E94E2005F
:1000500083E50E94E20085E40E94E20083E40E94BE
:10006000E20070E329B320FF0C943200332741E013
:100070005527662782E0ACD080E30E94E20080E34F
:100080000E94E20080E20E94E2008DE40E94E20011
:1000900089E40E94E2008EE40E94E2008AE30E946A
:1000A000E20080E30E94E20080E30E94E20080E23E
:1000B0000E94E20083E50E94E20085E40E94E200E3
:1000C00083E40E94E20081E090E062D029B327FD42
:1000D0000C94BB0020FF0C94660082E079D0252FA1
:1000E000570F852F522F0E94E200232F370F832FA7
:1000F000322F0E94E20080E20E94E2008DE40E9422
:10010000E20089E40E94E2008EE40E94E2008AE3B9
:100110000E94E200262F670F862F622F0E94E200C6
:10012000242F470F842F422F0E94E20080E20E947A
:10013000E20083E50E94E20085E40E94E20083E49D
:100140000E94E20081E090E023D0493010F06395F6
:100150004FEF4395663011F00C946600393010F083
:1001600053953FEF339544276627563011F00C9492
:1001700066000C94360029B327FF0C9436000C94CB
:10018000BB0001970000000000000000D1F70895B7
:100190008F939F9386EE93E0F4DF9F918F91019769
:1001A000B9F708958F9390B39F70807F890F82BBBA
:1001B000939A93988F918295807F890F82BB939AAF
:1001C00093980895929AEEDF8BE290E0DADF08953B
:1001D0009298E8DF87E290E0D4DF089588E290E02B
:1001E000D7DF80E382BB939A939887E290E0C9DFE0
:1001F00080E382BB939A939887E290E0C2DF80E22B
:1002000082BB939A939887E290E0BBDF88E2E0DFBD
:100210008CE0DEDF81E0DCDF8AEF95E0B2DF86E0B4
:04022000D7DF089587
:00000001FF
