:020000020000FC
:040000000C9412004A
:100020000C9491008FE58DBF94E09EBF88278ABB1A
:100030008CEF81BB8FEF87BB80EF84BB0E944201B6
:100040002FEF50E019B31030E9F314E019BF15E0B9
:100050001EBD15E81DBD1EEE1CBD78948FE00CD1B1
:1000600084E10E94DC000E94F300482F4030C1F37D
:100070004234F1F50E943601539584E10E94DC0080
:100080000E94F300482F4030C1F3413389F50E94AC
:100090003601539584E10E94DC000E94F300482F52
:1000A0004030C1F3453321F50E94360120E08CE059
:1000B000E3D082E0E1D081E40E9436018CE40E942A
:1000C000360181E40E94360182E50E9436018DE40A
:1000D0000E94360180E20E9436018FE40E943601C0
:1000E00086E40E94360186E40E9436010C94760074
:1000F0000E9436015395533061F084E10E94DC0088
:100100000E94F3008030B9F353950E9436010C949D
:100110007B0014E019BF15E01EBD10E01DBD10E00E
:100120001CBD88EC90E00E946D01203051F18CE004
:10013000A3D082E0A1D081E40E9436018CE40E9429
:10014000360181E40E94360182E50E9436018DE489
:100150000E94360180E20E9436018FE40E9436013F
:100160008EE40E9436013FEF38BB88EC90E00E949D
:100170006D01332738BB88EC90E00E946D010C9430
:10018000B300189598E0990F8A95E9F795BB0000A0
:10019000000083B38F70089581E0F4DF8295B82F5B
:1001A00082E0F0DFB80F83E0EDDF8295A82F84E0D6
:1001B000E9DFA80FCD010895682FEEDF8F939F939D
:1001C000862F90E08AD0E8DF7F916F918623972376
:1001D000A0E6B0E07D916C918C939E9370956095B4
:1001E000862397230895DC018AE2A0FD089580E329
:1001F000A1FD089583E2A2FD089584E4A3FD08957E
:1002000087E3A4FD089588E3A5FD089589E3A6FD8D
:10021000089583E4A7FD089584E3B0FD089585E380
:10022000B1FD089586E3B2FD089582E4B3FD08951B
:1002300081E3B4FD089582E3B5FD089583E3B6FD3F
:10024000089581E4B7FD0895882708958F9390B3AA
:100250009F70807F890F82BB939A93988F9182952C
:10026000807F890F82BB939A93980895929AEEDFCC
:100270008BE290E02BD008959298E8DF87E290E03F
:1002800025D0089588E290E028D080E382BB939A3D
:10029000939887E290E01AD080E382BB939A939878
:1002A00087E290E013D080E282BB939A939887E232
:1002B00090E00CD088E2E0DF8CE0DEDF81E0DCDF84
:1002C0008AEF95E003D086E0D7DF0895019700001C
:1002D000000000000000D1F708958F939F9386EEF1
:0E02E00093E0F4DF9F918F910197B9F7089595
:00000001FF
