:020000020000FC
:100000008FE58DBF84E08EBF80EF84BB8CEF81BB1A
:100010000E94BF008EE40E94B3008FE40E94B300F0
:100020008EE40E94B30085E40E94B30084E10E9444
:1000300059000E9470008030C9F3282F82E099D0C7
:10004000822F0E94B30080E20E94B30080E20E94EF
:10005000B30080E20E94B3000C94160001970000E8
:10006000000000000000D1F708958F939F9386EE63
:1000700093E0F4DF9F918F910197B9F7089598E08D
:10008000990F8A95E9F795BB0000000083B38F7044
:10009000089581E0F4DF8295B82F82E0F0DFB80F99
:1000A00083E0EDDF8295A82F84E0E9DFA80FCD0182
:1000B0000895682FEEDF8F939F93862F90E0D5DF12
:1000C000E8DF7F916F9186239723A0E6B0E07D91D2
:1000D0006C918C939E9370956095862397230895D9
:1000E000DC018AE2A0FD089580E3A1FD089583E28A
:1000F000A2FD089584E4A3FD089587E3A4FD089577
:1001000088E3A5FD089589E3A6FD089583E4A7FD8E
:10011000089584E3B0FD089585E3B1FD089586E375
:10012000B2FD089582E4B3FD089581E3B4FD08951E
:1001300082E3B5FD089583E3B6FD089581E4B7FD3C
:100140000895882708958F9390B39F70807F890FBB
:1001500082BB939A93988F918295807F890F82BBFF
:10016000939A93980895929AEEDF8BE290E076DF6F
:1001700008959298E8DF87E290E070DF089588E2C2
:1001800090E073DF80E382BB939A939887E290E0DC
:1001900065DF80E382BB939A939887E290E05EDF0D
:1001A00080E282BB939A939887E290E057DF88E2DF
:1001B000E0DF8CE0DEDF81E0DCDF8AEF95E04EDF20
:0601C00086E0D7DF089580
:00000001FF
