:020000020000FC
:100000008FE58DBF84E08EBF222727BB8CEF81BB9D
:100010000E949A0026B380E327FD83950E947E000C
:1000200080E326FD83950E947E0080E325FD839575
:100030000E947E0080E324FD83950E947E0080E381
:1000400023FD83950E947E0080E322FD83950E941C
:100050007E0080E321FD83950E947E0080E320FDE9
:1000600083950E947E008DE30E947E0060E027FD64
:1000700061E027FD2195603029F08DE20E947E002D
:100080000C9445008BE20E947E0011E030E040E0DD
:1000900050E0243610F031E024562A3020F0410F91
:1000A0002A500C944D00522F71E0832F803029F09C
:1000B00080E3830F0E947E0070E0403031F080E3E7
:1000C000840F0E947E000C9467007030C1F380E3BF
:1000D000850F0E947E000C9408000197000000002C
:1000E00000000000D1F708958F939F9386EE93E070
:1000F000F4DF9F918F910197B9F70895929A0AD0F2
:100100008BE290E0EADF0895929804D087E290E0D5
:10011000E4DF08958F9390B39F70807F890F82BB37
:10012000939A93988F918295807F890F82BB939A3F
:100130009398089588E290E0D7DF80E382BB939A9A
:10014000939887E290E0C9DF80E382BB939A93980B
:1001500087E290E0C2DF80E282BB939A939887E2C5
:1001600090E0BBDF88E2D0DF8CE0CEDF81E0CCDF47
:0C0170008AEF95E0B2DF86E0C7DF08955B
:00000001FF
